:020000040800F2
:1000000000200010CD3A0308F5230308F11800087A
:10001000F3230308F1230308EF2303080000000083
:10002000000000000000000000000000ED230308B5
:10003000EB23030800000000E9230308ED6D00082E
:10004000353B0308353B0308353B0308353B0308C4
:10005000353B0308353B0308C5A30208F1A4020899
:10006000B5A4020879A402083DA4020875DC0208C0
:1000700065DC020855DC020845DC020835DC0208B4
:1000800021DC02080DDC0208353B0308353B030880
:1000900055240308353B0308353B030801A4020837
:1000A000BD1F000861240008F11E0008DD250008BE
:1000B000A5230008E922000821220008353B030897
:1000C000353B0308353B0308353B0308353B030844
:1000D000353B03086D6F0008F16E0008756E00086F
:1000E00087A30208353B0308D9230308353B0308DF
:1000F00089200008353B030855210008353B0308DB
:10010000000000000000000000000000353B030874
:10011000353B0308353B030861490208454902089D
:10012000F9DB0208E5DB0208D1DB0208BDDB0208CF
:10013000A9DB0208353B03080000000000000000B6
:10014000353B0308353B0308353B0308000000003E
:10015000000000000000000000000000000000009F
:100160000000000000000000353B0308353B030899
:10017000353B030800000000000000000000000004
:0801800000000000353B0308FC
:100188000C4B1B78DB0700D570470B4A1368002B14
:10019800FAD04FF47A7101FB03F39842F4D3074B7A
:1001A8001B781BB9064B99681B690B600023136009
:1001B800704700BFC4370020985400208C5400209A
:1001C8007854002010B5094C238823EA000098428F
:1001D800208009D0064B41F20241FF2219809A7013
:1001E8000E2025F063FC2388184610BD403B0020F4
:1001F8005C53002038B50B4C23688BB15A68821ABF
:10020800002A054604DA0BE05A68AA1A002A07DB16
:100218009A68226018461A6890472368002BF3D121
:1002280038BD00BFC0280020436A8269D154436AA0
:100238000169826B01338B4228BF002343623AB3C2
:1002480070B4EFF31183502282F31288866B326800
:10025800D20704D5DBB283F3118870BC704771688C
:1002680069B9D0E90942944218D085691544F56006
:1002780018D9A21A72608462002280F85420326869
:1002880042F00102DBB2326083F3118870BC704720
:10029800026D136843F0800313607047012280F8F1
:1002A8005420D7E70469A21A72608162E4E700BFAC
:1002B800034610B4446BD968406954B15A6C8C1A1F
:1002C800013A005D5DF8044B08BF0A46C0B25A64A3
:1002D80070471A6A805C01328A4228BF2246C0B23F
:1002E8001A625DF8044B7047836B13B190F85400A1
:1002F8007047D0E90903181AB0FA80F0400970472E
:10030800D0E909120369914238BFC9188A1A816B6A
:10031800013B19B149680A449A4201D2981A7047B8
:1003280000207047436B43B1426C5B689A4291BFAF
:10033800981AC0689B1AC0187047D0E907239A42D8
:100348002FBFD01AC0688018C01A704708B51AF0B5
:1003580091FB024B024ADA60FEE700BF00ED00E0C5
:100368000400FA05024A034B1278197816F07ABB92
:10037800205A0020215A00202DE9F0478C4A8D4B45
:1003880012781C78D207064648D58B4D012C00F010
:1003980091801ED3022C40F09B808849884A0988A6
:1003A8001288884F914201D901241C70EB7AFBB165
:1003B8002B89EBB1844B1B78D3B124F015FB0028B3
:1003C80000F0E2802B7B83422CBF012300233B708B
:1003D8000FE0DFF8E8C17B4F7C4CBCF800002288B6
:1003E800697B521A8242DFDAEB7A0024002BDFD1D4
:1003F8003B782A79632A07D87549022C087800F0D7
:10040800B880002840F0A0807249AA7A9C4238BF80
:100418001C460C70002A44D1BDE8F087DFF89CC167
:10042800654DBCF80000BCF8021095F803E06A4F6F
:10043800411A0029A4F10302B8BF4942704597F850
:100448000080D2B211D32F7887420ED3012A45D922
:10045800B8F1020F9AD15C48604A0078908002296E
:10046800CCBF00210121D18090E7B0EB4E0FEDDC2D
:10047800012A40F28C800229EADC0324514F5248B9
:1004880052494F4A1C70B8F1020F4FF000033C70FC
:1004980003700B80138089D1504A01219380D18049
:1004A80084E7012C6BD0022CB6D10720BDE8F047B9
:1004B80025F0FCBA424A41491288687B0988121A19
:1004C800914207DD414A12888A423CBF00241C70D1
:1004D8003C4F6BE702241C703A4F67E70229B7DCF0
:1004E80095F800E090FBFEFE0EF1010EBEF1080F3C
:1004F800DFF8D4A0AA786978DFF8C490334C314F7C
:10050800A8BF4FF0080E8AF800E01FFA8EFA11FB18
:100518000AF112FB0AF2DFF8B8A0A9F8001092B2AB
:1005280000214FF06409B8F1020F22803970197068
:10053800CAF804108AF801907FF452AF274A0121C3
:10054800A2F804E0D18048E74868301A244EB04247
:10055800C8BF4A703FF758AFC2F16402214E00FB92
:1005680002F086FB0062C017A0EBA250643048700E
:100578004AE70028E8D101274E600F70ECE7082011
:10058800BDE8F04725F092BA02233B7031E7032C0F
:100598007FF471AFB8F1020F9AD10B4A0F4B127862
:1005A8009A800229CCBF00210121D980054FFDE6A0
:1005B800C437002064540020E4370020F03A0020BB
:1005C8006854002074540020F04100206654002034
:1005D8006C540020E1370020C0350020C4350020CD
:1005E8007F9698006BCA5F6B30B50446006D6171E9
:1005F8000368A26823F00103036087B0A37900921F
:1006080013F0040F4FEA03324FEA032314BF4FF4E9
:100618008055002503F4806302F400520195CDE96A
:100628000223002511F0010305952ED10493082318
:100638008D07694648BF049313F00CFE6079236D5B
:10064800A17900F00202002A15BF4FF440324FF49E
:1006580080324FF40034002410F0010F586808BFAE
:100668002246CC074CBF024320EA02025A609A682D
:1006780009074CBF42F0080222F008029A601A6883
:1006880042F001021A6007B030BD042304930C2322
:10069800CEE700BF2DE9F04F2DED028BA0F10A0344
:1006A80089B00C46ED2B00F2EA86DFE813F07A03F6
:1006B800E806E806E806E806E806E806E806E806C2
:1006C800E806E806E806E806E806E806E806E806B2
:1006D800E806E806E806E806E806E806E8065C0331
:1006E800E806E806E8066E04E806E806E806620496
:1006F800E8061F04E8062702E8061C02E8061502B9
:10070800E806F001E806DC01E806E806E806D70195
:10071800D101E806BF01E806E806A701E80680015E
:10072800E806E806E806AD01E806E806E806E80691
:100738006201E8065F02E80606062B06E806E806F8
:10074800E806E806E806E806E8068705E806590523
:10075800E8062505E806B904E806A604E806E8065A
:10076800E806E8067C044E069F06B305D506E806AB
:10077800E80625039506E8061A01FE00E806E806DD
:10078800E806E806EE00E806E8063B03E806E806A1
:10079800E80695027F021203D102E806E806E80699
:1007A800C302E806E806A302E806E806E806E80643
:1007B800E806E806E806E806E806E806E806E806C1
:1007C800E806E806E8067C04E806E806E806E8061F
:1007D800E806E806E806E806E806E806E806E806A1
:1007E800E806E806E806E806E806E806E806E80691
:1007F800E806E806E806E806E806E806E806E80681
:10080800E806E806E806E806E806E806E806E80670
:100818001104E806E806E806E806E806E806E80639
:10082800E806E806E806E806E806E806E806E80650
:10083800E806E806E806E806E806E806E806E80640
:10084800E806E806E806E806E806E806E806E80630
:10085800E806E806E806E806E806E806E806E80620
:10086800E806E806E806E806E806E806E806E80610
:10087800E806E806E806E806E8060704DD03E806F1
:10088800E806E806E806E8068C03A8495223226829
:10089800501C2060137011F8013F002BF7D1012084
:1008A80009B0BDEC028BBDE8F08FA1480023226897
:1008B800056803EB4301561C6D5C266015700268E1
:1008C80025680A446E1C527826602A7002682568DA
:1008D8000A4401339278691C0A2B21602A70E6D1F8
:1008E800DDE7944D0B682A68591CD27821601A708C
:1008F8002B6822689979531C2360002311702A6899
:1009080021681A440133527A481C032B20600A706C
:10091800F5D123682A68591C127B21601A70236854
:100928002A68591C127821601A7023682A68591C91
:10093800527821601A702B682046D9892BF083F9E8
:1009480023682A68591C127A21601A7023682A6859
:10095800591C527921601A7023682A68591C127927
:1009680021601A702A682368D279591C21601A708C
:1009780095E70B68704D591C2A7921601A70236815
:100988006A79591C21601A70298820462BF05BF976
:100998002368AA79591C21601A70698820462BF0AF
:1009A80052F92368EA79591C21601A7077E70B68B5
:1009B800624A634D1178634A581C206019701168A7
:1009C80020462BF029F923685F4A591C127A2160C6
:1009D8001A70298820462BF036F9A98820462BF072
:1009E80032F9298920462BF02EF9204600212BF0D8
:1009F8002AF9204600212BF026F950E7084608225C
:100A080051492BF0F2F84AE70B6800255A1C0A6096
:100A1800204629461D702BF0FFF8294620462BF06A
:100A2800FBF8294620462BF0F7F838E70B68474AC9
:100A3800474990785D1C2560187023685278581CC7
:100A480020601A7023680A79591C21601A7026E7F9
:100A58000B680122991821601A7020E708460021C6
:100A68002BF0DAF81BE73B4D3B4E05F1300795F9C3
:100A780002103A4B93F906208A4203F1080300F06A
:100A880001859E42F6D10835AF42F0D107E7344BD5
:100A980003F15A0522685979501C206011702268A8
:100AA8001978501C2060117022685978501C2060F9
:100AB800117022689978501C206011702268D978CA
:100AC800501C20601170226819790633501C9D4211
:100AD80020601170DED1E2E60B681B4A591C527D7A
:100AE80021601A70DBE61F4D05F1800655F8041FDA
:100AF80020462BF091F8AE42F8D1D0E61A4D05F118
:100B08004006B5F8801020462BF09DF8236895F82C
:100B18008220591C21601A70236895F883200435B7
:100B2800591CAE4221601A70EBD1B8E6C4480308DC
:100B38003C420020404200205C4F0020042D002051
:100B48002C5A0020902A002020790020BC2D00205B
:100B5800245A0020B8640020FC780020CC780020BB
:100B6800884A00204436002048360020AD4F3B78A4
:100B7800002B3FF494AEDFF8E88200254646236850
:100B880018F81520591C21601A70717801EB810141
:100B980001EB810101F2EE2120462BF054F83B785D
:100BA8000135AB4206F10206E9DC78E60A689E4B9D
:100BB8009E491878551C2560107022685878551C75
:100BC8002560107022689B78501C206013702046A6
:100BD800C9882BF038F862E6944D084629882BF02E
:100BE80032F8698820462BF02EF8A98820462BF089
:100BF8002AF854E60B688E4F591C3A7821601A700F
:100C08003B78002B3FF44BAE0025EEB2304614F093
:100C1800F9F823684278591C216030461A7014F09C
:100C2800F1F8018920462BF00EF83B780135AB42EC
:100C3800EBDC34E67F4D0846298A2BF004F8698AF4
:100C480020462BF000F8A98A20462AF0FCFF26E669
:100C5800DFF810C20027FEB2614600232268501C4C
:100C6800206016702268501C20601370226811F8EA
:100C7800010F0133551C062B25601070EED101378A
:100C8800062F0CF1060CE6D16B4900232268501C94
:100C9800206017702268501C20601370226811F8B9
:100CA800010F0133551C0B2B25601070EED1236802
:100CB800624A581C07212060197023680021581CBB
:100CC80020601970236892F8F020591C21601A706E
:100CD800E5E50B685A4A5B4910785B4A5D1C25605C
:100CE800187023688978581C2060197023689278D6
:100CF800591C21601A70D2E5544D084629882AF0FB
:100D0800A2FF698820462AF09EFFB5F90430504AB0
:100D1800D91782FB0323C1EBA301204689B22AF02D
:100D280092FFBCE54B4D05F16006A98820462AF0E4
:100D38008AFFE98820462AF086FF298920462AF07A
:100D480082FF2368AA7A591C21601A702368EA7AFC
:100D5800591C21601A7055F80C1B20462AF05CFFBC
:100D6800B542E2D19BE53C4D05F16406287825F0B3
:100D7800CDFB2368027A591C21601A7023686A78AF
:100D8800591C21601A702368AA78591C21601A70AE
:100D98002368EA780535591CAE4221601A70E5D1FE
:100DA8007DE52E4D284631F0F3FF00283FF477AD5E
:100DB8002B460544226813F8011B501C9D422060F5
:100DC8001170F7D16BE505A82AF034FE00283FF42E
:100DD80066ADBDF8141020462AF035FF23689DF84B
:100DE8001620591C21601A7023689DF81720591C79
:100DF80021601A7023689DF81820591C21601A7008
:100E080023689DF81920591C21601A7023689DF8E1
:100E18001A20591C21601A702046BDF81C102AF0AF
:100E280012FF3CE5A8290020942D0020444F002003
:100E3800A1350020606C00202B37002048360020A8
:100E4800B86700209C2D0020AC2D0020F841002020
:100E580067666666284A0020C0310020782D002089
:100E6800E832002007370020974B03F1700522680D
:100E78001978501C2060117022685978501C206025
:100E8800117022689978501C206011702268D978F6
:100E9800501C2060117022681979501C2060117054
:100EA80022685979501C206011702268997907339B
:100EB800501CAB4220601170D9D1F0E4834D084634
:100EC800E9892AF0C0FEA98920462AF0BCFEE6E49A
:100ED8000B687F4A591C1278216005A81A702AF0FD
:100EE800A9FD23685A1C22601870D8E4794D0B6854
:100EF8002A7A591C21601A70A98B20462AF0A3FE71
:100F0800298B20462AF09FFE698B20462AF09BFEFB
:100F18002368EA7C591C21601A70A98C20462AF0A3
:100F280092FEE98C20462AF08EFE2368AA7F591C7F
:100F380021601A70236895F82020591C21601A70C6
:100F4800698C20462AF07FFE2368EA7A591C2160C2
:100F58001A70E96820462AF05FFE23682A7C591C2B
:100F680021601A70236895F82120591C21601A7095
:100F780095E40B68584A581C11782060197023684A
:100F88005278591C21601A7089E4544D0846298802
:100F98002AF059FEA98820462AF055FE29892046BC
:100FA8002AF051FE7BE44E4B1A780023D2070646FE
:100FB800CDE901330393CDE90433069300F1498366
:100FC800DFF82C81DFF82C910127002505E0013599
:100FD8000B2D00F0758218F9017F7B1C394605A896
:100FE800F5D02BF01DFAB9F800302B41DA07EED511
:100FF800394603A82BF014FAE9E70B68334A394954
:10100800D078394A5D1C2560187023684979581CC6
:10101800206019702368D278591C21601A703EE448
:10102800204600212AF00FFE204600212AF00BFE60
:10103800204600212AF007FE23682C4D00265A1C62
:1010480022601E7023682A68591C92F82C2021609F
:101058001A7023682A68591C92F8362021601A7081
:1010680023682A68591C92F8372021601A7023686F
:101078005A1C22601E7023685A1C22601E70236846
:101088005A1C22601E702B682046598F2AF0DBFDFF
:101098002B682046198F2AF0D6FD23682A68591C28
:1010A80092F82E2021601A7023685A1C22601E7044
:1010B8002B682046598E2AF0C6FD2B682046998E4B
:1010C8002AF0C1FDFFF7EBBBE84800209C2D00206B
:1010D8004227002020790020042D00202C5A0020CF
:1010E800C43700209C480020AC2D00203C42002042
:1010F800F4480308403B0020C04E0B687279C04D8D
:10110800591C21601A702B682046198C2AF09BFD07
:101118002B682046D98B2AF096FD718920462AF043
:1011280092FDB18920462AF08EFD2B682046598C05
:101138002AF089FD2B682046998C2AF084FDF189D4
:1011480020462AF080FD318A20462AF07CFD2A6854
:10115800236892F82620591C21601A70FFF79FBB5C
:10116800A64E0B68F278591C002A00F04B82082220
:1011780021601A7023680122991821601A70236867
:10118800A04D591C2A7921601A702368AA78591C25
:1011980021601A70298820462AF055FDE9892046E1
:1011A8002AF051FD2368F279591C21601A702368CE
:1011B800EA78591C21601A70FFF771BB15F0C8FA5C
:1011C800FF28054600F03F8208A8002300F80C3DE0
:1011D80015F0A8F922688C4B511C21601570226803
:1011E8001978501C2060117022685978501C2060B2
:1011F800117022689978501C2060117022689DF83F
:101208001410501C20601170204699882AF01BFD8C
:10121800FFF745BBDFF830A2DFF830B27B4E7C4FDA
:101228009FED7C8ADFF82882DFED7B8ADFF8249245
:101238000AF1C0050EE0FCEEE77A17EE903A99B293
:1012480020460AF1180A2AF0FEFCAA450BF1040B05
:101258003FF425AB9AF811100029F1D03378DBED73
:10126800007A012BE7D13B68DB0440F1B181F5EE50
:10127800407AF1EE10FA00F0CF81F4EEC87AF1EE80
:1012880010FA00F1C981BDEEE77AF4EEE87AF1EEE2
:1012980010FA17EE103A00F2E381A3F130026FF46E
:1012A800F97303FB02F389FB03121A44D917C1EB44
:1012B800622101F2DB5189B2C2E70B68574D012662
:1012C8009A190A601E7011F08DFF002840F0AA815B
:1012D800534B2268511C21601070226841F2B410EF
:1012E800511C185C216041F2781110705958204641
:1012F800890A2AF091FCA96A204649082AF08CFC40
:10130800FFF7CDBA0B68474D591C012221601A70AE
:101318002368AA78591C21601A700BF043FE2368D1
:10132800414A42495E1C26601870B1F90010B2F9B2
:1013380000002AF01DFF23685A1C226018702988B3
:1013480020462AF080FCFFF7AABA394B9B8AB3F5EE
:10135800006F00F25481B3F5806F00F27E81B3F51F
:10136800007FB7EE008AF6EE007A28BFB0EE678AF3
:10137800304D05F10C06F5EC017A67EE887A2046C7
:10138800FCEEE77A17EE903A99B22AF05CFCB54287
:10139800F1D1294D294F05F10C06B5EC010AD7ED1D
:1013A800077A80EE270A33F017F881B220462AF030
:1013B8004AFCAE42F1D1224D05F10C06F5EC017A5A
:1013C800FCEEE77A204617EE903A99B22AF03BFCF9
:1013D800B542F3D1FFF763BA204600212AF01CFC7E
:1013E800204600212AF02FFCFFF759BA08461022A0
:1013F80014492AF0FAFBFFF752BA00BFB867002079
:101408003C420020606C0020CA3A0020766C002024
:10141800606A00200000404200E08244F46400203A
:10142800988600209E260020DE260020E426002044
:101438000042002028420020546A0020D46700207F
:10144800A0530020902B0020A06B0020702B0020C0
:10145800DB9B914121053483904F3B78002B3FF46F
:101468001EAA8F4E002536F9021B204689B22AF0A3
:10147800EAFB3B780135AB42F5DCFFF710BA0020F8
:10148800FFF70EBA23685A1C226019702988204673
:101498002AF0D9FB2368EA78591C21601A7023685E
:1014A8002A79591C21601A702368AA79591C21606D
:1014B8001A7023686A79591C21601A70FFF7E3BA19
:1014C800002502E00135282D0FD0294605A82AF06D
:1014D800B6FF0028F6D1E8B219F0F4FF0028F1D0E1
:1014E800294603A82AF09CFFECE700256D4FA84683
:1014F80002E00135282D12D0294638462AF09FFFF0
:101508000028F6D0294603A82AF099FF10B908F157
:101518000108EEE7414601A82AF082FFF7E7624B8F
:10152800624DB3F8501020462AF08DFB002120466A
:101538002AF089FB5E4B19684B0103F02002C1F3C6
:1015480040031343C1F3800243EA4203C1F3C002DC
:1015580043EA8203C1F3401243EAC20301F01001D7
:10156800194320462AF06FFB01A9042220462AF0DD
:101578003CFB236829784F4A581C20601970118851
:101588006429A8BF642120462AF05DFB962E4FD01F
:10159800002120462AF057FB2168B8F1190348BFFB
:1015A800A8F11203A3F3C4034A1C226020461A467A
:1015B8000B7002A92AF019FB23683F4A581C112115
:1015C80020601970204611682AF026FBFFF767B9DA
:1015D800F4EEC87AF1EE10FA21DBFDEEE77A40F27C
:1015E800E73217EE903A303B02FB03F388FB032106
:1015F800DB17C3EB612101F2E93189B220E6B4EED1
:10160800008AB5E6B27821601A7023682B4A591C03
:10161800127821601A70B2E540F2DC5110E64FF4FE
:101628007A710DE695F82420254B4ABB304650E6E2
:1016380023680322591C21601A7023686A78591C90
:1016480021601A70A8E723685A1C22601870FFF7F7
:1016580026B9012303930593B2E4B5EE008A87E621
:10166800A3F5836240F2F31303FB02F389FB031231
:101678001A44D917C1EB622101F2DD5189B2DFE5C5
:101688005978022904D003290CBF0420304620E6EB
:10169800042A34BF022003201BE600BFA82900202B
:1016A800183B0020BC530020881A0020C098002056
:1016B800F4410020264A002018380020902D0020F0
:1016C8009886002010B5094C23881843984220803A
:1016D80009D0074B41F20241FF2219809A700E206F
:1016E80024F0E4F92388184610BD00BF403B0020D1
:1016F8005C530020024A136818431060704700BF0B
:10170800183800205C4B5D4870B550220125002137
:101718001D7032F085FC5A4A5A495B4C5B480023DD
:101728000B60136023F0E4FA2946052023F02EFB12
:101738006579291C4FF0070018BF012123F026FB0B
:10174800A679311C4FF0080018BF012123F01EFBB9
:10175800A37A002B68D04E4C002D6FD1311C18BFD6
:1017680001214C4E092023F011FB3168CA0775D4BA
:10177800464D11F0020163D1003118BF0121032049
:1017880023F004FB444A454B128E93FBF2F3642B7F
:10179800B8BF642301210420C5F8143123F0F6FAF8
:1017A8003F4B0620197823F0F1FA01210A2023F093
:1017B800EDFA21680B20C1F3802123F0E7FA2168B4
:1017C8004B0508D5374B1B7A083B012B9CBF4FF4C0
:1017D800FA63C5F84C32C1F300410C2023F0D6FA65
:1017E80021680D20C1F3804123F0D0FA21680E2032
:1017F800C1F3C06123F0CAFA01210F2023F0C6FA11
:101808000121102023F0C2FA0121112023F0BEFA91
:101818004FF4804024F050F8011C18BF0121122019
:10182800BDE8704023F0B2BAE37A194C002B93D18B
:10183800216811F4802194D0002D8FD0012190E7E8
:101848000121022023F0A2FA174B31685B6A642B4E
:10185800B8BF642301F00201AB678DE7134B0B4D52
:101868001B68642B4FF00101B8BF642308466B6402
:1018780023F08CFA31687CE7F0540020A054002053
:10188800F45400209C540020E4370020881A0020DB
:10189800606A0020F4410020B864002040420F0034
:1018A800243200202079002000420020506A0020C5
:1018B800022828BF022010B4084C094B207000EB06
:1018C8008002C0EBC20207495DF8044B013003EB0C
:1018D8004203C0B20B6024F027B900BFC0980020B3
:1018E8004A2500203C42002008B50121022028F0AA
:1018F80023FD094B1B7803F00503052B08D00021B5
:10190800012028F019FD0021084628F015FDFEE702
:1019180019F08BF9F3E700BF6C61002008B50DF0F2
:101928001BF929F00DFEBDE808400DF0BBB800BF5B
:1019380038B5434B5A899989914224BF00225A816C
:10194800198ADA89914224BF0022DA81DA788AB3C7
:10195800072A2FD03B493C4D91F850000124002123
:101968000A282C709C70D9713DD00C2865D0DFED09
:10197800377A8ABB364C9FED370AA278002918BF00
:10198800F0EE407A062A04D8334901EB820191ED42
:101998000F0A217959B3013A032A0AD8F7EE007AD7
:1019A80087EE800A32F018FD2388984228BF18462F
:1019B800208038BDD97921B198780428B8BF04208F
:1019C8009870204890F850000A280CD00C28CED1E6
:1019D800DFED227A002ACDD0072ACBD00A282CD1D5
:1019E800DFED1F7AC6E70A20DFED1E7AC1E79B7894
:1019F800154907EE103A0A78B8EEC77A67EE277AE3
:101A080007EE102AB8EEC77A27EE277AB4EEC70A8F
:101A1800F1EE10FACDDD80EE277AFDEEC77A17EEEB
:101A2800903A102BA8BF1023012BB8BF0123DBB2BB
:101A38009A4238BF1A460A7038BDDFED0B7A99E72B
:101A4800B8670020D4670020902D00206F1203395A
:101A5800606C00206F120338C44803080AD7A33902
:101A68000F506E3A5304E9386F12833A38B50C4C6C
:101A78000C4DAC4206D261682046143423F0B8F904
:101A8800AC42F8D3084A094B094C146000220949B2
:101A98001A705A7008480860BDE8384014F0D2B887
:101AA80048AE0308D0B203083C420020C09800208A
:101AB8004A250020404200205A26002008B5FFF79A
:101AC800D5FF0DF049F829F03BFDBDE808400CF0C2
:101AD800E9BF00BFF0B40C292BD8DFE801F0752A64
:101AE8002A2A502A2A2A2C2A2A2A0700046AB2F803
:101AF8000CC0978816686B4D24F480540462036AFE
:101B08004468C16923F4005343EA0C3321F4E641E5
:101B1800A84243EA073341EA062100F0BC8005F5F4
:101B28000065A84200F0B78092684460C161026411
:101B38000362F0BC7047046AB2F80CC09788166854
:101B4800584D24F480740462036A4468C16923F41C
:101B5800007343EA0C2321F07301A84243EA0723E8
:101B680041EA060100F0848005F50065A8427FD0AF
:101B780092684460C161F0BCC26303627047046A42
:101B8800B2F80CC097881668464D24F01004046219
:101B9800036A4468816923F0200321F0807143EAD5
:101BA8000C1321F4E641A84243EA071341EA06214F
:101BB8004BD005F50065A84247D092684460816122
:101BC800F0BC826303627047046A9389B2F804C068
:101BD8001768344E24F001040462046A4568816978
:101BE80021F4803124F0020443EA0C0321F073014C
:101BF800B04243EA040341EA07010ED02A4CA0424E
:101C08000BD004F54064A04207D004F58064A042DC
:101C180003D004F58064A04210D1D489168A578A6B
:101C2800B2F806C023F00803234325F4407523F0D7
:101C3800040346EA07044CEA030325439268456017
:101C48008161F0BC426303627047D589178AD688E0
:101C580023F0800343EA051324F44064558A23F0F3
:101C6800400344EA870443EA061344EA8504A4E7E8
:101C7800D589178AD68823F4006343EA052324F418
:101C88004054558A23F4806344EA071443EA062340
:101C980044EA05146CE7158A24F4804444EA851460
:101CA80042E700BF002C0140003401402DE9F84F05
:101CB8004FF4A0720021DFF818827B487B4C7C4EE1
:101CC8007C4FDFF81092DFF810A232F0A9F97A49B8
:101CD8007A48DFF808C2DFF808E208F58C72454652
:101CE8002B688B4200F0B780B3F1804F00F0BA80C8
:101CF800A34200F0BE80B34200F0C980BB4200F0AE
:101D0800C880634500F0C780734500F09D804B454F
:101D180000F0C380534500F0C380DFF8C8B15B45CD
:101D280008BF4FF4802B00F091801C35AA42D7D110
:101D3800634F644E4FF0030A4FF0020998F80630DB
:101D4800002B7AD098F804301C09013C052C03F0CC
:101D58000F0372D837F8140040FA03F2D2076CD593
:101D68004FF0010B0BFA03F3013B184031F02EFD45
:101D7800554B1B5D184416EBC0045ED056F8303046
:101D8800524898F8081003F13842920A825C02F02F
:101D98001F005209022A0BFA00FB72D0032A6AD0EC
:101DA800012A04D1454842694BEA02024261B4F86B
:101DB80004C0BCFA8CF2C2F11F0292B2D00803EB45
:101DC800800002F00702046A92004FF00F0E0EFA2C
:101DD80002FE24EA0E040462046A01FA02F22243B3
:101DE80002624FF0010E00220EFA02F434EA0C01EE
:101DF80020D15000D3F808B00AFA00F1C9430BEA21
:101E0800010BC3F808B0D3F808B0C3F808B0B3F8AA
:101E180004B02BEA04049C809C88A4B29C801C68B3
:101E28000C401C601C6809FA00F020431860D86850
:101E38000140D9600132102AD6D108F11C08454565
:101E48007FF47CAFBDE8F88F4FF4005B836943EA09
:101E58000B03836169E783694FF4006B43EA0B0363
:101E6800836162E70123D0F81CB043EA0B03C36126
:101E78005BE70223F7E71148C2694BEA0202C26135
:101E880095E70E4882694BEA020282618FE70423D4
:101E9800E9E71023E7E72023E5E74FF4803BD5E7A0
:101EA8004FF4003BD2E700BF7863002000040040F5
:101EB8000008004000100040002C014000100240C3
:101EC800046E030880660020106E0308B86C0308CF
:101ED800C06C030800400140004401400014004069
:101EE80000340140004801402DE9F8432F4D2A698C
:101EF800EB6812EA030826D02D4E4FF00047B8FAD7
:101F080088F327FA03F2D2431B3B2A6108EA020846
:101F1800042B15D8DFE803F0372D23190300D6F872
:101F28003C31002B39D1EB6A1FFA83F9D6F83841D6
:101F380034B123682046494698476468002CF8D194
:101F4800B8F1000FDBD1BDE8F883D6F81801696B4A
:101F5800036889B29847B8F1000FD0D1F3E7D6F8F3
:101F68001C01A96B036889B29847B8F1000FC6D164
:101F7800E9E7D6F82001E96B036889B29847B8F118
:101F8800000FBCD1DFE7D6F82401296C036889B2B9
:101F98009847B8F1000FB2D1D5E703F1FF39002314
:101FA8001FFA89F9C6F83C31C0E700BF0048014074
:101FB800786300202DE9F8432F4D2A69EB6812EA6F
:101FC800030826D02D4E4FF00047B8FA88F327FAB9
:101FD80003F2D2431B3B2A6108EA0208042B15D8F6
:101FE800DFE803F0372D23190300D6F8EC30002B77
:101FF80039D1EB6A1FFA83F9D6F8E84034B123687F
:102008002046494698476468002CF8D1B8F1000F7B
:10201800DBD1BDE8F883D6F8C800696B036889B2DC
:102028009847B8F1000FD0D1F3E7D6F8CC00A96BE8
:10203800036889B29847B8F1000FC6D1E9E7D6F826
:10204800D000E96B036889B29847B8F1000FBCD19A
:10205800DFE7D6F8D400296C036889B29847B8F14D
:10206800000FB2D1D5E703F1FF3900231FFA89F930
:10207800C6F8EC30C0E700BF00400140786300209C
:102088002DE9F8432F4D2A69EB6812EA030826D098
:102098002D4E4FF00047B8FA88F327FA03F2D243DF
:1020A8001B3B2A6108EA0208042B15D8DFE803F075
:1020B800372D23190300D6F8C430002B39D1EB6A29
:1020C8001FFA83F9D6F8C04034B123682046494640
:1020D80098476468002CF8D1B8F1000FDBD1BDE84F
:1020E800F883D6F8A000696B036889B29847B8F1FD
:1020F800000FD0D1F3E7D6F8A400A96B036889B222
:102108009847B8F1000FC6D1E9E7D6F8A800E96BFF
:10211800036889B29847B8F1000FBCD1DFE7D6F859
:10212800AC00296C036889B29847B8F1000FB2D1A6
:10213800D5E703F1FF3900231FFA89F9C6F8C4303F
:10214800C0E700BF00340140786300202DE9F84360
:102158002F4D2A69EB6812EA030826D02D4E4FF05E
:102168000047B8FA88F327FA03F2D2431B3B2A61E7
:1021780008EA0208042B15D8DFE803F0372D2319E5
:102188000300D6F8C430002B39D1EB6A1FFA83F963
:10219800D6F8C04034B12368204649469847646859
:1021A800002CF8D1B8F1000FDBD1BDE8F883D6F8E0
:1021B800A000696B036889B29847B8F1000FD0D1C5
:1021C800F3E7D6F8A400A96B036889B29847B8F179
:1021D800000FC6D1E9E7D6F8A800E96B036889B211
:1021E8009847B8F1000FBCD1DFE7D6F8AC00296CEE
:1021F800036889B29847B8F1000FB2D1D5E703F167
:10220800FF3900231FFA89F9C6F8C430C0E700BFB8
:1022180000340140786300202DE9F8432E4D2A69E7
:10222800EB6812EA030826D02C4E4FF00047B8FAA4
:1022380088F327FA03F2D2431B3B2A6108EA020813
:10224800042B15D8DFE803F0352B22190300D6F844
:102258009C30002B37D1EB6A1FFA83F9D6F89840E7
:1022680034B123682046494698476468002CF8D161
:10227800B8F1000FDBD1BDE8F883B06F696B036874
:1022880089B29847B8F1000FD1D1F4E7F06FA96B84
:10229800036889B29847B8F1000FC8D1EBE7D6F8C0
:1022A8008000E96B036889B29847B8F1000FBED186
:1022B800E1E7D6F88400296C036889B29847B8F139
:1022C800000FB4D1D7E703F1FF3900231FFA89F9CA
:1022D800C6F89C30C2E700BF0008004078630020C1
:1022E8002DE9F8432B4D2A69EB6812EA030824D03C
:1022F800294E4FF00047B8FA88F327FA03F2D24381
:102308001B3B2A6108EA0208042B13D8DFE803F014
:10231800322920170300736F002B34D1EB6A1FFAA0
:1023280083F9346F34B12368204649469847646876
:10233800002CF8D1B8F1000FDDD1BDE8F883306D7D
:10234800696B036889B29847B8F1000FD3D1F4E7F5
:10235800706DA96B036889B29847B8F1000FCAD1AC
:10236800EBE7B06DE96B036889B29847B8F1000FE5
:10237800C1D1E2E7F06D296C036889B29847B8F1DA
:10238800000FB8D1D9E703F1FF3900231FFA89F903
:102398007367C6E700040040786300202DE9F8431E
:1023A8004FF080452A69EB6812EA030824D0294EC9
:1023B8004FF00047B8FA88F327FA03F2D2431B3BE1
:1023C8002A6108EA0208042B13D8DFE803F032294F
:1023D80020170300F36C002B34D1EB6A1FFA83F942
:1023E800B46C34B123682046494698476468002C89
:1023F800F8D1B8F1000FDDD1BDE8F883B06A696B98
:10240800036889B29847B8F1000FD3D1F4E7F06AAE
:10241800A96B036889B29847B8F1000FCAD1EBE7F6
:10242800306BE96B036889B29847B8F1000FC1D1E6
:10243800E2E7706B296C036889B29847B8F1000F1E
:10244800B8D1D9E703F1FF3900231FFA89F9F364FA
:10245800C6E700BF786300202DE9F8435A4D2A6982
:10246800EB6812EA030825D0584E4FF00047B8FA37
:1024780088F327FA03F2D2431B3B2A6108EA0208D1
:10248800042B14D8DFE803F04A41382F0300736A9D
:10249800002B40F09280EB6A1FFA83F9346A34B15A
:1024A80023682046494698476468002CF8D1B8F15B
:1024B800000FDCD1464D2A69EB6812EA03084AD0BE
:1024C800424E4FF00047B8FA88F327FA03F2D24396
:1024D8001B3B2A6108EA0208042B39D8DFE803F01D
:1024E8005B51473D27003068696B036889B298479C
:1024F800B8F1000FBBD1DDE77068A96B036889B23A
:102508009847B8F1000FB2D1D4E7B068E96B036817
:1025180089B29847B8F1000FA9D1CBE7F068296CC8
:10252800036889B29847B8F1000FA0D1C2E7D6F87E
:102538001431002B39D1EB6A1FFA83F9D6F8104110
:1025480034B123682046494698476468002CF8D17E
:10255800B8F1000FB7D1BDE8F883D6F8F000696B81
:10256800036889B29847B8F1000FACD1F3E7D6F801
:10257800F400A96B036889B29847B8F1000FA2D19B
:10258800E9E7D6F8F800E96B036889B29847B8F12B
:10259800000F98D1DFE7D6F8FC00296C036889B2F0
:1025A8009847B8F1000F8ED1D5E703F1FF39002322
:1025B8001FFA89F9C6F81431C0E703F1FF3900237F
:1025C8001FFA89F9736269E7002C014078630020DB
:1025D800004401402DE9F8432B4D2A69EB6812EAC3
:1025E800030824D0294E4FF00047B8FA88F327FA99
:1025F80003F2D2431B3B2A6108EA0208042B13D8D2
:10260800DFE803F0322920170300736A002B34D166
:10261800EB6A1FFA83F9346A34B1236820464946C5
:1026280098476468002CF8D1B8F1000FDDD1BDE8F7
:10263800F8833068696B036889B29847B8F1000F6E
:10264800D3D1F4E77068A96B036889B29847B8F1E9
:10265800000FCAD1EBE7B068E96B036889B2984705
:10266800B8F1000FC1D1E2E7F068296C036889B2BC
:102678009847B8F1000FB8D1D9E703F1FF39002323
:102688001FFA89F97362C6E7002C014078630020BD
:10269800F0B50668504CB30AA34200F0848061D9B3
:1026A8004E4CA34200F0828074D94D4CA34268D0AE
:1026B8000134A34255D107254FF49C7790F805C003
:1026C80002232CFA03F084468340A800002970D026
:1026D800D6F80CE044190CEB440C9BB2414C43EA8D
:1026E8000E030CF1040E44F82C1044F82E20F3606D
:1026F800E319EFF31181502282F31288421904EB97
:10270800C202D2F810C0BCF1000F03D044F807C0D1
:1027180013690433421904EBC202576917B11F60E9
:1027280053690433421904EBC202976917B11F6059
:1027380093690433421904EBC202D76917B11F60C9
:10274800D36904330022C9B21A6081F3118828447E
:1027580004EBC004236AC3B9F3684FF6FE72134052
:10276800F360F0BD4A3CA3421AD00134A34205D01D
:10277800B3F5801FF5D1012548279FE70325982742
:102788009CE706254FF4887798E7F36843F0010340
:10279800F360F0BD033CA342E3D10425C0278DE7D5
:1027A800022570278AE70025202787E70525E827DF
:1027B80084E7D6F80CE00B4CDB439BB203EA0E032C
:1027C80000EB050E0CEB4E0CF3600CF1040344F81F
:1027D8002C1044F823208BE74B0010005000100009
:1027E800510010007863002030B503685A4D1888EE
:1027F8005A4CB4FBF2F20139013AAB4294B283B0BD
:1028080089B282B20DD0564883420AD0B3F1804FC4
:1028180007D0A0F59830834203D000F5806083424A
:1028280002D122F0700292B24E4883426AD000F57B
:102838008060834241D022F4407200F58C3092B21D
:1028480083421A80D9621C8565D100221A8601222A
:102858005A611A88404942F001028B421A806AD0B4
:10286800B3F1804F69D0404A934268D002F5806244
:10287800934266D002F50062934264D002F580620A
:10288800934262D002F59032934260D002F54062E2
:1028980093425ED002F58062934217D002F58062BF
:1028A800934208BF092212D002A84FF0012340F832
:1028B800043D11F0F7F903B030BD01201A80D96248
:1028C8001C8558611A8802431A80C9E70822274BD9
:1028D80003EBC20301A893F85D408DF8044001237F
:1028E80000228DF805308DF807308DF8062011F09C
:1028F800D9F91B2CDFD11E4B019301A811F0D2F995
:1029080003B030BD01201A80D9621C8558611A882D
:1029180002431A80A7E7124A934296D002F5406212
:10292800934292D002F5806293428ED002F5806283
:1029380093428AD08BE70022C9E70122C7E7022227
:10294800C5E70322C3E70422C1E70522BFE7062241
:10295800BDE70722BBE700BF002C014000A24A04E4
:10296800003401400010004000040040C44803083F
:1029780019010001204B98422DD0B0F1804F2CD086
:10298800A3F5943398422AD003F58063984228D05F
:1029980003F50063984226D003F58063984224D05B
:1029A80003F59033984222D003F54063984220D033
:1029B80003F58063984207D003F58063984208BF07
:1029C800092202D00020704708220C4B03EBC203F7
:1029D80093F85C0070470022F7E70122F5E702222E
:1029E800F3E70322F1E70422EFE70522EDE70622E9
:1029F800EBE70722E9E700BF002C0140C4480308C1
:102A08002DE9F04F013083B0C3B20193884C894E51
:102A1800894DDFF838820A239B462CF0EFF9DFF85E
:102A280020C24FF4FA7A4FF0100E4FF47A77DCF8A0
:102A38000430C3F30803002B40F0DD80EFF311836B
:102A4800002B40F0D8802168AA6800BF236899420B
:102A5800F9D1306807FB00F39A1AB2FBF0F207FBD2
:102A68000121DCF80430C3F30803002B40F0888010
:102A7800EFF31183002B40F083802368A86800BF20
:102A880022689342F9D1D6F8009007FB09F2101A90
:102A9800B0FBF9F007FB03035B1AB3F57A7FE0D3C9
:102AA800BAF1010AC3D101982CF00EF84FF47A7AE2
:102AB800DFF88CC157464FF0100EDCF80430C3F332
:102AC8000803002B7BD1EFF31183002B77D121680A
:102AD800AA6800BF23689942F9D1306807FB00F360
:102AE8009A1AB2FBF0F207FB0121DCF80430C3F3B9
:102AF800080333BBEFF311831BBB2368A86800BF2F
:102B080022689342F9D1D6F8009007FB09F2101A0F
:102B1800B0FBF9F007FB03035B1AB3F57A7FE4D344
:102B2800BAF1010AC9D15B46013B9B467FF475AFF8
:102B38004249434B4348444A0860DA6003B0BDE861
:102B4800F08FEFF311808EF31288D5F808902B6878
:102B5800DB0304D50123C8F80030D5F808902368B2
:102B6800D8F80020C0B280F311883068134407FBFE
:102B780000F2A2EB0902B2FBF0F207FB0323CBE75A
:102B8800EFF311808EF31288D5F808902B68DB03D9
:102B980004D50123C8F80030D5F808902368D8F880
:102BA8000020C0B280F311883068134407FB00F29C
:102BB800A2EB0902B2FBF0F207FB03236CE7EFF389
:102BC80011828EF31288A8682B68D90303D50123D4
:102BD800C8F80030A8682368D8F80010D2B282F389
:102BE80011883268194407FB02F31B1AB3FBF2F38E
:102BF80007FB013179E7EFF311828EF31288A86899
:102C08002B68D90303D50123C8F80030A8682368C6
:102C1800D8F80010D2B282F311883268194407FB41
:102C280002F31B1AB3FBF2F307FB013119E700BFEC
:102C3800106300207463002010E000E0FC9F002077
:102C480000ED00E0EFBEADDE0400FA057063002081
:102C58002DE9F84F0BF080FFDFF83883AF4B434581
:102C680025D2DFF83493AE4F03F114069A464C464A
:102C78002588621985B1BA420ED2052D0CD936F8CD
:102C8800143C6188C3F30B03994200F0E1801446B9
:102C980025886219002DEED156F8101C50460AF10D
:102CA800140A22F0A5F8C24506F11406DFD39D499F
:102CB8000B78A3F11702022A0FD99B4A12F83300A6
:102CC800002840F0FB80D800024452782AB1974A85
:102CD80012F83330002B00F01981954B5A78022AEC
:102CE80040F2DF8000225A701A78924892490160B7
:102CF800022A00F2DF8002EB8201904BC2EBC10294
:102D080003EB4203998C5A8C8D4C9142236001D37A
:102D180000225A848B4B9A78042A00F0D88032B962
:102D28001A88B2F5F07F84BF4FF4F0721A80864D8E
:102D3800FEF7FEFD2B68854A1A40002A00F0E9805C
:102D4800D80700F1DE80590400F1D6801A0700F197
:102D5800CE809B0400F1C4802CF0FEFF10B97C48A3
:102D680020F0B4FD802028F0ADFB4FF4007028F06F
:102D7800A9FB4FF4003028F0A5FB4FF4001028F011
:102D8800A1FB4FF0007028F09DFB4FF0806028F009
:102D980099FB1EF089F8002130226E4831F040F985
:102DA800206817F0CBFA6C4B256803F1640102E048
:102DB8000533994273D01A78002AF9D19C78D878CB
:102DC8008442F5D26549664B0E79664CC820642169
:102DD80011FB0601596000215E4883F82010C3E901
:102DE8000211C3E90411C3E9061183F821105E4BEF
:102DF8002270C0E90C530BF08DFC5C4B9FED5C5AC4
:102E08001B885C4A9FED5C6A50795C4906EE903AF3
:102E1800F8EEE66A1388C5EE265A07EE103A53888C
:102E28001279C1ED005A07EE903AB8EEC77AF8EE7B
:102E3800E77A534B27EE067A67EE867A18725A724B
:102E480083ED017AC3ED007ABDE8F84F0BF02ABE96
:102E580063799B077FF41BAF56F8101C94F804B0F5
:102E6800504621F0C5FF36F8143CBBEB133F07D0A2
:102E78000AF1140AC24506F11406FFF4F8AE16E783
:102E880036F8123C56F8100CAA1FC3F30B039A42EB
:102E980004F10601A8BF1A4630F0A8FFE8E70122AE
:102EA80090E72549234801EB02111A780160022AAC
:102EB8007FF621AF00221A70204B23E7D8001418A0
:102EC8006468002C7FF400AF17240C70FCE69A8A23
:102ED800B2F57A7FBFF42BAF4FF47A729A8226E765
:102EE800284828F0EFFA402028F0ECFA34E7264882
:102EF80028F0E8FA2B682CE7244828F0E3FA2B6836
:102F080024E7234828F0DEFA2B681CE718230B7007
:102F1800E3E643F008032B6012E700BF48AE03085E
:102F280000000408042D0020306E0308DC5003085C
:102F3800C0980020404200205A2600204A25002040
:102F48003C420020606C0020902A002009600002AA
:102F5800B8640020A0220020C03100205C4F00206F
:102F6800F4370020681E0020A22D002040510020C8
:102F7800C0C9FB48245A002017B7D1384451002053
:102F8800C84900200940000201600002092000022F
:102F980008600002D0B2030802F0030808B50BF07D
:102FA800DBFD28F0CDFA0BF07DFDFFF751FE012087
:102FB800BDE8084022F0B8BD2DE9F047DD4C636854
:102FC80020469847002800F0E180DB4B1B7801225F
:102FD800042B84F8342000F0DB80B4F9163006EEB8
:102FE800903AB4F9183007EE103AB4F91A3007EEEF
:102FF800903AF8EEE66AB8EEC77AF8EEE77AC4EDEA
:103008000A6A84ED0B7AC4ED0C7ACC4B1B88002B32
:1030180072D0CB4DD4ED0A6AD5ED004A95ED050A7C
:1030280095ED015A95ED067AD5ED047AD5ED035A5A
:1030380095ED026AA4EEA60AA5EE267A67EEC07A96
:10304800A5EEC07AE6EE267A85ED057AC5ED067A14
:1030580031F0C2F9D4ED0B6AD5ED094A95ED0E0AA7
:1030680095ED0A5A95ED0F7AD5ED0D7AD5ED0C5AF6
:1030780095ED0B6AA4EEA60AA5EE267A67EEC07A4D
:10308800A5EEC07AE6EE267A06EE900AF8EEE66A33
:1030980085ED0E7AC5ED0F7AC4ED0A6A31F09CF918
:1030A800D4ED0C6AD5ED124A95ED170A95ED135A31
:1030B80095ED187AD5ED167AD5ED155A95ED146A71
:1030C800A6EEA40AA6EE857A67EEC07AA0EE657A27
:1030D800E6EE867A06EE900AF8EEE66AC5ED187A0C
:1030E80085ED177AC4ED0B6A31F076F907EE900A90
:1030F800F8EEE77AC4ED0C7A924EA17F9248934D90
:103108000BF076FA32886B6B002A40F09580904A73
:103118001268500759D4B3F9002094ED0B6A94ED66
:103128000C7A94ED0A5A8B4905EE902AB3F90220DD
:10313800B3F9043006EE902A07EE903AF8EEE55A15
:10314800854B0A68D3ED003A93ED014AD3ED024A64
:10315800F8EEE66AF8EEE77A75EE655A76EE666A94
:1031680077EE677AC4ED0A5A34EE266A73EEA55AEA
:1031780034EEA77A0132C3ED005AC4ED0B6A83ED31
:10318800016AC4ED0C7A83ED027A0A60BDE8F08723
:10319800B4F91600B4F91810B4F91A206F4B07EEF9
:1031A800900AF8EEE76A07EE901AB8EEE77A07EEAB
:1031B800902AF8EEE77AC4ED0A6A188059809A8056
:1031C80084ED0B7AC4ED0C7A1FE7B5F84420322A57
:1031D80000F0CC80002A40F0F88095F86220002AA0
:1031E80099D005F1540007C85D4EA78A86FB02EC0A
:1031F800D217C2EB2C12D21B86FB00C786FB01C676
:10320800C017C917C1EB2611C0EB2710554E9A807D
:10321800188059800023B381F38185F862300BF060
:103228009BFC28F08DF90BF03DFCFFF711FD012008
:1032380022F07AFC6B6B6EE7B2F5C87F18BFD5ED4C
:103248000E7AD4ED0A6A0CBF9FED477AB8EEE77A9A
:10325800DFED457A0022C4ED0A7A1A803288B6F882
:10326800008037EE267AB2F5C87F18BFD5ED0F7A01
:10327800BDEEC77A18BFF8EEE77A17EE101A85ED9B
:103288000E7A94ED0B7A77EE877A0027FDEEE77ACF
:103298000020B8F5C87FE76217EE902A5880C5ED80
:1032A8000F7A00F08980D5ED107A94ED0C7A2763B7
:1032B800F8EEE77AB8F1010F77EE877A9880FDEE9D
:1032C800E77A17EE907AC5ED107A2ED1DFF890C024
:1032D800B4F814E0C8378CFB07A9C831C832FF1707
:1032E800C7EBE9178CFB01A98CFB02ACD217C2EB28
:1032F800EC12C917DFF86CC05A80A7EB0E07C1EBB8
:10330800E9119F801980ACF80C00ACF80E000BF0A6
:1033180023FC28F015F90BF0C5FBFFF799FC404694
:1033280022F002FCB6F800806B6B08F1FF38A6F8B3
:103338000080ECE600420020C0350020003100206B
:1033480004310020C251002028420020A022002081
:10335800606A0020B8490020BC490020C43500201C
:103368001F85EB519C2D002000000000D4ED0A6A57
:1033780094ED0B7AD4ED0C7A4C491E68C968AE649A
:10338800FDEEE66ABDEEC77AFDEEE77A9E8829650E
:1033980000200021C5ED156AA062A5F84C601980CF
:1033A80085ED167AE06259802063C5ED177A998019
:1033B800013AA5F8442010E7D4ED0C7A2763FDEE16
:1033C800E77A9880C5ED107AAFE7D5ED157A94EDD8
:1033D8000A5AD4ED0B5A94ED0C6AF8EEE76AD5ED6B
:1033E800167AB8EEE77AD5ED177AF8EEE77A76EE40
:1033F800856A37EE257A77EE867AFDEEE66ABDEEC7
:10340800C77AFDEEE77A00200021012AC5ED156A8A
:10341800A062198085ED167AE06259802063C5EDB7
:10342800177A9980C4D1224885F86010016885F818
:103438006120890330D41F4E002031460F780B2FAE
:1034480001F10C010BD001301828F7D1A86C1749ED
:103458001860B5F84C60286D9E80C860A8E7164FC4
:10346800D7F800E04100BEF1000F09D001EB000CD5
:1034780006EB8C0C9EF801E09CF801C0F445E5D2FF
:103488000144DFF840C00D4806EB810600213E608C
:10349800ACF800100160D9E7094909780329CAD1B5
:1034A80022F0EAFA6B6BB5F84420CFE79C2D002098
:1034B800CC5100206C630308145A00200C5A0020D9
:1034C800E1370020105A00202DE9F04F83B08E4DCF
:1034D800DFF8408201908B460BF1FF339B460133A6
:1034E80000F00E812BF08AFC884C894FDFF828C247
:1034F8004FF4FA7A4FF0100E4FF47A76DCF8043075
:10350800C3F30803002B40F0DF80EFF31183002B97
:1035180040F0DA802168AA6800BF23689942F9D18F
:10352800386806FB00F39A1AB2FBF0F206FB012199
:10353800DCF80430C3F30803002B40F0A680EFF357
:103548001183002B40F0A1802368A86800BF22687F
:103558009342F9D1D7F8009006FB09F2101AB0FB94
:10356800F9F006FB03035B1AB3F57A7FE0D3BAF1EF
:10357800010AC3D1019B581CC0B22BF0A5FADFF891
:1035880098C1DCF804304FF47A7AC3F3080356463E
:103598004FF0100E002B38D1EFF31183002B34D1EC
:1035A8002168AA6800BF23689942F9D1386806FBE8
:1035B80000F39A1AB2FBF0F206FB0121DCF80430A2
:1035C800C3F30803002B41D1EFF31183002B3DD146
:1035D8002368A86800BF22689342F9D1D7F8009001
:1035E80006FB09F2101AB0FBF9F006FB03035B1A9D
:1035F800B3F57A7FE2D3BAF1010A3FF46DAFDCF894
:103608000430C3F30803002BC6D0EFF311828EF306
:103618001288A8682B68D90303D50123C8F800309D
:10362800A8682368D8F80010D2B282F311883A68E3
:10363800194406FB02F31B1AB3FBF2F306FB013134
:10364800DCF80430C3F30803002BBDD0EFF311807E
:103658008EF31288D5F808902B68DB0304D5012374
:10366800C8F80030D5F808902368D8F80020C0B210
:1036780080F311883868134406FB00F2A2EB0902B4
:10368800B2FBF0F206FB0323B1E7EFF311808EF3F0
:103698001288D5F808902B68DB0304D50123C8F8F5
:1036A8000030D5F808902368D8F80020C0B280F31D
:1036B80011883868134406FB00F2A2EB0902B2FB3A
:1036C800F0F206FB03234EE7EFF311828EF3128824
:1036D800A8682B68D90303D50123C8F80030A86867
:1036E8002368D8F80010D2B282F311883A681944D6
:1036F80006FB02F31B1AB3FBF2F306FB013117E7D3
:1037080003B0BDE8F08F00BF10E000E010630020B8
:10371800746300207063002000ED00E0204B5B68BC
:10372800C3F3080330B4BBB9EFF31183A3B91D4A3F
:103738001D481368846800BF11688B42F9D11B4A81
:1037480011684FF47A7202FB01F0001B30BCB0FB29
:10375800F1F002FB03007047EFF31182102383F3AB
:1037680012881149124D8C680B68DB0344BF012392
:103778002B600C4B48BF8C681B682868D2B282F358
:1037880011880A4A11684FF47A72184402FB01F34F
:103798001B1B30BCB3FBF1F302FB0030704700BFCA
:1037A80000ED00E01063002010E000E074630020EA
:1037B800706300202DE9F04F2DED028BA54F3B786B
:1037C800012B8FB0804600F0EE80A34BA34D1878F4
:1037D80012F05CF82B788342044606D090B9A04ECC
:1037E800306821F065FC34602C709E4E3378012BD4
:1037F8002DD09D4B1B78002B3DD00FB0BDEC028B1C
:10380800BDE8F08F994B1B68002BEED0984A93F9CE
:1038180002009379002B18BF08244FF0000308BF5B
:10382800002403214FF49642CDE9011400920821A7
:103838001A4621F081FC8A4B18600028D5D0894EA1
:1038480011F0A2FF01232B703378012BD1D1894BC2
:10385800DFF86092187812F019F8D9F800300446A9
:10386800002840F0B280002BC3D0184621F020FC7D
:10387800C9F80040BDE7804B1B685905BDD53B78AA
:10388800012B00F01B817D4F2B78002B3BD07C4C0B
:103898007C4AE36EA8EB0303934200F28D817A4DD4
:1038A80095F800A0BAF1000F00F0C781DFF808C250
:1038B800DCF800303BB3E26F40F6B731A8EB020208
:1038C8008A4220D994F87820002A00F0838394F85B
:1038D8008150634994F880E00868013AD2B2013512
:1038E80084F87820EDB2002A00F06A8313F8011BEF
:1038F80084F881508E44CCF8003084F880E025F0BC
:103908009EFDC4F87C803B6832780133012A069317
:1039180000F0FB805D4B1B78002B40F0F7815C4B7F
:103928001B78002B3FF469AF554CD4F8A43003F54D
:103938000043E8339845FFF460AF94F8A830C4F822
:10394800A480012B40F2FB8294F8A9205149D01899
:1039580001EB8001013202F00102D1F8A86084F87D
:10396800A920AEB14C4F07970EADA7F1120945F843
:10397800209D48F2A502152341462846A4F8AC200C
:1039880084F8AE30B047002840F0CB8394F8A830D4
:10399800424A0133A2FB0312520802EB42029B1A6D
:1039A80084F8A83029E73E4B3E4C1E68304611F09B
:1039B80063FF256858B3002D7FF407AF3A4B1B68A7
:1039C800002B3FF402AF2360FFE6002B7FF411AF1A
:1039D800364A1268002A3FF40CAF254992F90200D2
:1039E8008A794979002A0CBF00220822002908BFD9
:1039F80042F0010203244FF46141CDE901420091F4
:103A08001A46202121F098FBC9F80000F1E6284B5E
:103A1800187811F03BFF8146002800F0C480002D83
:103A28007FF4D3AE002E3FF4D0AE114B96F90200CE
:103A38005B79B3FA83F35B0902214FF41652CDE99F
:103A4800011300922B462A46042121F075FB2060C1
:103A5800BBE600BFD9420020E5420020E642002034
:103A680048420020E7420020423B00204C42002010
:103A7800D4410020E8420020606A00201063002042
:103A8800A02200203F0D0300544200201C430020C8
:103A98002D430020C448030861230020ABAAAAAA2A
:103AA800DC420020D83A0020E0420020EC4200200E
:103AB800E44200204442002050420020A74B1B68EB
:103AC800002B3FF4E0AEA64CA64A636EA8EB0303B6
:103AD80093427FF7D8AEA44A94F868301268C4F8C5
:103AE80064800133DBB2920784F8683000F18E837A
:103AF80013F0070700F06A83282B9C4F00F0B1836E
:103B08009B4B5E201B689847BEE6DFF89892D9F871
:103B1800000000283FF4FEAE914C964D04F1900A47
:103B28000126002725F088FC50B3D4F888B0BBF1F3
:103B3800000F25D1D9F8000025F078FC83B27E2B40
:103B480000F0E3816A78002A40F0028194F884103A
:103B5800002900F0A8801B2B84F88420D9F80000E5
:103B680040F0EE8025F068FC002800F0E081D9F8EC
:103B780000006E70C4F8887025F05EFC0028D4D16F
:103B8800FFF7CCFDD4F89830C01AB0F5FA7FFFF6ED
:103B9800C1AE06AA7849D4F8880011F03BFB00238F
:103BA800C4F88830B6E6002D3FF40FAE284621F061
:103BB8007FFAC4F8009008E6704B714A93F80AE05F
:103BC8003D68206F12886F4B4FF47A71281A01FBF9
:103BD8000EF15FFA82FC0025120A884283F81EC0A3
:103BE800DA7783F814C05A759D701D7180F0DB81F7
:103BF8006549664D08688968C4F86C8085FB002CA7
:103C080085FB0125C017CA17C2EBA502C0EBAC01A2
:103C18004FEA212E4FEA222C4FF4FA75197747F212
:103C28003050782183F81DE083F8202083F821C0E4
:103C38005D83588483F8241031E6DFF86C91D9F855
:103C4800000025F0F9FBC0B201280ED9022840F087
:103C58003582484B1A78002A40F0FE82626FA8EB42
:103C68000202B2F57A6F80F05B83DFF840C1DCF8BE
:103C78000030002B3FF447AE2A78002A7FF41BAEB1
:103C8800434BD9F800001B689B781E3B012B40F280
:103C9800DF820430022111F041FD012200232A7045
:103CA80084F880302DE67D2B00F0348294F88E2045
:103CB80022B180F02000C3B284F88E10B4F88C20B2
:103CC80094F883101A44062992B20CD8601801316E
:103CD80080F89030A4F88C20C4F8887084F8831099
:103CE800D9F800001EE7130A53FA82F2FF2A6E7011
:103CF800A4F88C2040F01681C4F888A0FFF70EFDC8
:103D08000346C4F89830D9F8000009E7214C227816
:103D180032B1214B2149186825F065FB0023237037
:103D28001F4E3478002C45D0DFF884A0DAF86050B4
:103D3800002D40F00A810A4B3570C3F89C80EEE5EF
:103D48000D2B7FF414AFA4F88C20C4F88820E9E682
:103D5800C4F888B0D9F80000E4E600BFD83A0020DB
:103D6800A022002047E80100F44100201063002051
:103D78003C3600200000002022230020D4410020EF
:103D8800F03A0020F0420020DC3A002067666666C0
:103D98004C420020D84200202043002098420020B6
:103DA8002543002044420020484200205042002081
:103DB80034430020C44D2B78002B40F00E81C34CB7
:103DC800C34DD4F89C202978C24B93FBF1F31344DC
:103DD8009845FFF4A4ADC04A94F8A030C4F89C807C
:103DE800D65CF70744D5DFF820939FEDBC8AB9F974
:103DF800023007EE903AF8EEE77AB94B079367EE90
:103E0800887A0EAFFDEEE77AA3F13D0247F8202D40
:103E180017EE902A91B24FF4006223F8402C1E222C
:103E280003F83E2C384627F0EAFEB9F9003007EED1
:103E3800903AF8EEE77A384667EE887AFDEEE77A48
:103E480017EE903A99B227F0DAFEB9F9043007EE86
:103E5800903AF8EEE77A384667EE887AFDEEE77A28
:103E680017EE903A99B227F0CAFE384611F0C0FC16
:103E7800B0073CD59A4B9B4ADFF89092118807937C
:103E88000EAFA3F13D0247F8202D4FF4206C082215
:103E980023F840CC03F83E2C384627F0B0FED9F87A
:103EA80000309149DA1781FB0313C2EBA30399B2DF
:103EB800384627F0A4FE20F097FDD9F80890069B15
:103EC8004FEA1942591C06911A70069B4FEA1922AB
:103ED800591C06911A70069B5A1C069283F800908A
:103EE800069B5A1C06921870384611F081FC71071F
:103EF80000F1DE8194F8A0302978013393FBF1F2C8
:103F080001FB123384F8A03009E584F882B084F804
:103F180083B084F8846085F801B0C4F888B0D9F813
:103F28000000FFE5C4F88870D9F80000FAE5C4F885
:103F3800880084F882606E70D9F80000F2E56B4A58
:103F480002EB8302D2F8A8600BE50024DFF8C091E9
:103F5800254650270BE01C44EFF3118387F31288A2
:103F6800DAF86020944217DADBB283F311881AF882
:103F780004B0601C5946504411F052F80BF101038B
:103F88000028E8D049463A2010F0ACFF0BF1010BAD
:103F98000543EDB25C44DFE70022DBB2CAF86020DB
:103FA80083F31188C7E6524A396812782167013AC3
:103FB800012A3FF61DAE1021022299701A7117E6E8
:103FC8000EF10103714684F8815084F8803025F0A1
:103FD80036FA96E411F0D8FB93E44149454B009337
:103FE800A1F13F06444B454A059101F8404C06A80B
:103FF8004349049627F0F9FE049E731C0493347019
:10400800049B2922591C04911A70049BEA22591C0A
:1040180004911A70049BC822591C049106A81A70AE
:104028002EF0B6FE471C06A93A4604982FF0DEFE8D
:10403800049AD31901330493D455049B5A1C04924F
:104048001C70049B5A1C04921C70049B5A1C0492FA
:104058001C70049B5A1C04921C70049B5A1C0492EA
:104068001C70049B5A1C04921C70049B5A1C0492DA
:104078001C70049B5A1C04921C70049B5A1C0492CA
:104088001C70049B5A1C04921C70049B5A1C0492BA
:104098001C70049B5A1C04921C70049B01229918E2
:1040A8000EA804911A7050F8283D9B1B337011F02C
:1040B8009FFB064B2C70C3F89C8030E411F054FB36
:1040C800104B01221A70D0E524430020A0220020C2
:1040D8002C430020A08601002843002058A08B41D3
:1040E80098420020F03A002067666666C4480308D4
:1040F800E1370020C6980020607203086872030840
:104108007472030800000020F8410020DC3A002007
:104118002D58010884F88E60C4F88810D9F800007A
:1041280000E5069B4B4540F27E81A7F11300002174
:104138005F1E41F2210610F8012F81EA022212B215
:1041480093B2002AACBF5B0086EA43039BB21A0411
:1041580054BF5B0086EA43039BB2190454BF5B005B
:1041680086EA43039BB21A0454BF5B0086EA430302
:104178009BB2190454BF5B0086EA43039BB21A043E
:1041880054BF5B0086EA43039BB2190454BF5B002B
:1041980086EA43039BB21A0454BF5B0086EA4303D2
:1041A800874299B2C7D1284627F04DFDA549069DFB
:1041B800A5486D1A152DA8BF15252A462FF016FEFD
:1041C800A24A94F8A8301570FFF7E2BBFF2010F060
:1041D80019FE0378FF2B14BF90F90110394602200D
:1041E80011F0EEFAFF2010F00DFE0378FF2B14BF3C
:1041F800B0F908100021032011F0E2FA20F0E6FBE4
:10420800002840F0AA8094F8683075E4DFF88CA2A2
:104218009FED8F8AAAF128092427B9F81430FAECFF
:10422800016A07EE103AB8EEC77A3846C6EE877AC2
:104238000137FFB267EE887AFDEEE77A17EE903A1B
:1042480019B211F0BDFA272FE7D194F868304FE47E
:10425800022125F0E8F820E5C4F8748083F800A06E
:1042680003E5D7F800907B4BDFF834A2A3FB0923C2
:104278009B0BAAFB03214909C1EB0111A3EB8103A5
:10428800190209B20023172084F8683011F098FA4F
:10429800714BA3FB09239B09AAFB03125209C2EB2A
:1042A8000212A3EB820319B2182011F089FA27E44D
:1042B8006A4B0793A3F1400700212122A3F13D098E
:1042C80023F8401CBA70CDF8189017F0EDF8644B3D
:1042D800644A1B88644900280ABF1146032604263D
:1042E8005A0500F19D80D80700F19F8003F0020372
:1042F8005E4A002B1CBF0326114632465C482FF04D
:1043080075FD09EB06030EA85A4A013340F8203D13
:104318009B1A002209F806207B7011F069FAE9E57A
:104328000122D9F800001A7025F080F88246D9F8E1
:10433800000025F07BF81AF07F0F7FF496AC8E28EA
:104348007FF493AC2B78002B7FF4B0AA4A4B4B4AEE
:104358001A602D2384F8783092E4494FB4F86A2023
:104368003878DFF8409192FBF0F300FB13239BB2FF
:10437800B9F80020A4F86A30190189B2642303FB54
:1043880002034200B3FBF2F341EA0321C3F3032320
:10439800194309B2062011F013FA3A4AB4F86A3000
:1043A800507AB9F8001001330128A4F86A303FD0D8
:1043B800137B01EB81011FFA81F913B13B7899FB5B
:1043C800F3F9314FA7FB09377F0939B23A2011F0C9
:1043D800F7F9642101FB179189B22C4B0531A3FB36
:1043E8000131C9083B2011F0EBF9DFF8BC9099F8CE
:1043F8000630002B3FF407AF254F0A223B6893FB9A
:10440800F2F3282019B211F0DBF9B9F80830A3B992
:10441800B96881F3100109B2042011F0D1F9F2E66C
:1044280003261C4969E70021BDE61B49042664E709
:1044380009B2392011F0C4F9D7E720F0D5FA01B252
:10444800EAE700BF4C2300207428002089280020B8
:1044580000007A4473B2E745D34D621098420020B9
:10446800403B0020447203084C7203085C72030846
:104478005B4200205942002050420020F0420020B8
:10448800F0410020D44100201F85EB51CDCCCCCC8D
:10449800DC3A0020507203085472030828420020B6
:1044A80089888888F03A0020E43700202DE9F04F09
:1044B8007B4C2DED068B23789BB0074643B1DFF884
:1044C8002CA2DAF80C305046984780F00100207092
:1044D800744B1D78002D00F04584734973480C789F
:1044E80007F59C42203216460A92002206601A708E
:1044F800002C00F04E846E4B6E4A1B6805929F425A
:104508006D4B06931A686D4B049340F23084013C5E
:104518006B4B0C7002F480520893002A40F02E84F2
:10452800684B1B78022B01F02983042B01F01883B8
:10453800012B01F0A182644B089A9F42927801F204
:104548009B80002A41F09C80604B0793069B1F6864
:10455800049B17F48059B3F9064041F03882059B53
:10456800DFF88C815E8BA642CCBF00260126584A14
:10457800079B12681B7812F0805203F0010300F0C9
:104588004984002B00F049840599498CA14241F3E4
:10459800DF84002E40F048844E4C94F850110029D6
:1045A80040F042844C484D49006890F82D000024A2
:1045B8000C604C608C60002840F0368448490870D4
:1045C800002B40F03784474B1B78002B40F0FD84CC
:1045D800059B049A598BB2F900009A8B3D4C814295
:1045E800B4BF8023002382420498B0F90200C8BFF8
:1045F80043F040039B088142BCBF63F07F03DBB2FA
:1046080082420498B0F90400C8BF43F040039B08F5
:104618008142BCBF63F07F03DBB282420498B0F9E9
:104628000600C8BF43F040039B088142BCBF63F04B
:104638007F03DBB2824294F85221C8BF43F04003A3
:104648009A4201F0E086284A84F852311178002213
:10465800A4F8542184F85621002900F019845F2B0E
:1046680000F0B3846F2B00F0B084079A069B127891
:104678001B68D20703F0040340F11C84DFF874A020
:10468800002B40F0AB84DFF87090DDF810B0002309
:10469800CDE91633CDE918334E46CDE9099A39E00C
:1046A800C42900208B29002074310020C029002053
:1046B8007031002020790020606A0020183B00201B
:1046C800F437002042270020404B4C00C43700201C
:1046D8001C2D0020A02200203C420020582B002046
:1046E8001051002018470020681E0020A82900202B
:1046F80024320020403B0020C0310020214618A869
:1047080027F09DFE814670B9BA4500F24A84053605
:10471800464538D03478272CF9D8337996F803A051
:10472800B778012BEAD1BA45A94640F200844FF088
:10473800010C7178043140F6330E3BF911007045D5
:10474800A8BF7046B0F5617F4FF0190140F2833E73
:10475800B8BF4FF4617011FB07E7874280F2ED8321
:1047680011FB0AE28242B4BF00270127BCF1000F07
:1047780040F0DE83B945CAD0214616A8053627F091
:104788004FFE4645C6D19DF861009DF859109DF829
:1047980058309DF860409DF85A2041409DF86200CD
:1047A8008DF85910634042408DF858309DF86300E9
:1047B8009DF85B308DF85A2043408DF85B3016AA7F
:1047C8005F4B92E803001B785E4ADDE9099A82E8AC
:1047D8000300002B41F0D5805B4B1F78002F01F0C0
:1047E8001F805A4B09935748012127F028FEBAF831
:1047F8000050002840F0B883089BDB78002B40F07D
:10480800B383534C25F001039BB2AB42AAF80030A6
:104818000AD0504B41F20241FF2219800E209A70B3
:1048280021F044F9BAF800504648022127F007FE63
:104838002BB2002800F0A18323F001039BB2AB4206
:10484800AAF800300AD0434B41F20241FF221980F6
:104858000E209A7021F02AF9BAF80050AA0741F1FF
:1048680094863D4B19783D4B5868AB0701F002011F
:1048780000F02D84003118BF012125F055FD2421B9
:10488800304827F0DCFD30B9079A13785F0744BF3A
:1048980023F0040313702368BAF8004013F00A0FDA
:1048A80012D00621274827F0CAFD002801F08F8280
:1048B800650641F1D8820721224827F0C0FD00286B
:1048C80041F08381BAF800401E480C2127F0B7FD5B
:1048D800002800F0958444F48073A342AAF80030BD
:1048E80008D01C4B41F20241FF2219800E209A7019
:1048F80021F0DCF81A4B1B78082B00F08B840E2B68
:1049080000F08884069B1F68780561D5154B1B79D4
:10491800002B00F0148314210A4827F090FD00288A
:1049280040F0128310F0C8FF012020F0C5FF0028D6
:104938004CD0DFF834800A9600244FF0D00B18E0F2
:10494800766C00201C2D0020423B002040420020B5
:10495800F44100205C5300203C63002040630020A9
:10496800042D0020D4410020BC810020DCB2032C9F
:104978002BD00BFB04F7631C58F80750002DF5D11A
:10498800032290F9023002950192C278E34951F866
:104998002220009218462A462B46012120F0CCFB03
:1049A800064604EB440004EB800008EB001046B117
:1049B80029460430CC222FF033FB013448F8076035
:1049C800E4B22BF02BFC0028D1D10A9E069B1F686D
:1049D800079B93F800B0D24B1BF0010B00F09683B5
:1049E80001221A70099BCF481A68049BD189B3F930
:1049F800063001248B42047080F27083CA4A4FF05B
:104A08007E511160059AC94C158B049A94F90410CB
:104A1800B2F90020207894F801E00029A2EB0504FF
:104A280014BF01214FF0FF31002CB8BF6442B4F528
:104A3800FA7FA8BF4FF4FA748442C6BF241A07EE5F
:104A4800904ADFEDBB7ABB4CC8BFF8EEE77A9542D7
:104A5800049AC4ED007AB2F902C0C8BFF1EE677AD1
:104A6800ACEB0502C8BFC4ED007A002AB8BF5242B9
:104A7800B2F5FA7FA8BF4FF4FA729042BCBF121A7F
:104A880007EE902A049AA8BFDFEDA97AB2F90400CC
:104A9800B8BFF8EEE77A6545A0EB0502C4ED017AE8
:104AA800C4BFF1EE677AC4ED017A002AB8BF52425A
:104AB800B2F5FA7FA8BF4FF4FA72964580F2BC822D
:104AC800A2EB0E0201FB02F107EE901AF8EEE77A6C
:104AD8008542C4ED027A9849C4BFF1EE677AC4ED05
:104AE800027A17F48057087800F0D082B3F5FA6F8D
:104AF800A8BF4FF4FA63B3F57A7FB8BF4FF47A735F
:104B0800A3F57A73002841F0A5818C49DFF840C2EB
:104B180081FB0320DA17C2EB6012501C6FF0630EA2
:104B28003CF910003CF912C00EFB0233A0EB0C005C
:104B380003FB00F381FB0321DB17C3EB61139C44E8
:104B48000FFA8CFC07EE90CAB8EEE78A84ED038A68
:104B5800002F40F04D87BAF800305A0640F1FC802B
:104B68007749784A91ED018A92ED027A92ED014AED
:104B7800D1ED033AD2ED006AD1ED028A92ED036AD3
:104B8800D1ED005AD4ED011A94ED002A6E4A6F490E
:104B980038EE635A74EE470A76EE867A65EE200A96
:104BA80075EEE84A36EEC69A75EEA89A64EEA74AFC
:104BB800B0EE603AA9EE893A13F00303B0EE645AF6
:104BC80038EE231A74EE077AA9EE895AA1EE273A2D
:104BD800B0EE600A91EE270AA1EE675A33EE243A46
:104BE800F0EE407AB6EE000A35EE88AAB0EE671A03
:104BF80020EE433A35EE605A76EE840AA9EEC91AD9
:104C0800AAEE203A77EEE47A77EE460A33EEE8AA7F
:104C180025EE005AE9EE897AAAEE205A71EE244A66
:104C280036EEC44A63EE036A73EEA83A64EE804A2D
:104C380075EEC85A37EE066A67EE807AB0EE667A85
:104C4800E3EE844A95EE057AE5EE056AE5EE867AA6
:104C5800B1EE648AF0EE665AF0EE476AB1EE674A42
:104C6800E8EE246A63EE270A67EEA43AE4EE275AD0
:104C7800B1EE450AB0EE609AB0EE631AA4EE277A58
:104C880023EE244AE7EEA76AA5EE249AA0EE031ABB
:104C9800E8EE245AB0EE448A31EEA16AE0EE240A26
:104CA800A5EE278A66EEA16A72EE028AE5EE033A5D
:104CB80061EE211A26EE096AA4EEA47AA0EE274A2C
:104CC8000CBFD4ED022ADFED1A2A82ED005AA2EEBB
:104CD800256AE8EEA06AE2EE081A73EEA33A27EE18
:104CE800227A34EE044AF0EE005AE2EEA36AA4EE09
:104CF800226AA1EEA57AC4ED016AC1ED586A81ED78
:104D0800576A84ED006A81ED597A82ED013AC2ED65
:104D1800027AC2ED034AFBB91CE000BFFC49030854
:104D28009C3F002048510020C4500020942D0020B2
:104D380000000000C83700206C5400201F85EB518C
:104D4800941E0020401A0020781A0020A02200207B
:104D5800A851002084ED027ABBF1000F40F06F8269
:104D68001CF0A0FA1BB0BDEC068BBDE8F08FB44B6D
:104D7800089302F48052002A3FF4D2AB0021B148D4
:104D880027F05DFB00287FF4CBAB21F073FAFFF727
:104D9800C7BBAD4B1E78002E01F00084DFF8DCA203
:104DA800AA4EDFF8DCB20596DFF8D892D04627E0A5
:104DB800315D9847032C03462ADCC8B109EB84030C
:104DC80039F824105A88401A4FF47A7303FB00F01C
:104DD800521A40F6CA0390FBF2F000F57A70984236
:104DE800A8BF184640F2EE239842B8BF184600B252
:104DF800954B2BF8020B1B7801349C4280F25082B1
:104E0800072C4046DAF80430D2DDE1B29847034671
:104E180018B2EDE779023FF5B4AB8D4C002184F868
:104E28005011002E3FF4BEAB8A4901200870002BB8
:104E38003FF4C9ABF8067FF5C6AB874B1B78D9069C
:104E48003FF5C1ABB9F1000F7FF4BDAB002A7FF489
:104E5800BAAB7B023FF5B7AB804B1B78002B01F058
:104E680017867F4B9B78002E41F004863BB17D4A24
:104E78007D4B12681B689B1A002BC1F276861020A6
:104E8800734C20F013FE012384F85131FFF79BBBCC
:104E980000216C4827F0D3FA002841F0C480079B12
:104EA800724A1B781060DF0701F1D683069B1B68E6
:104EB80003F0040394F85621002A7FF4DFABB4F919
:104EC800541132297FF7DAAB94F85211012057298F
:104ED80084F8560101F04F840BB15A2964D05D293A
:104EE80001F032855E2901F028855B2901F01A85D9
:104EF800562901F0B985972901F0A185A72901F064
:104F08009185DFF884A1BAF800309F0741F07E85CB
:104F1800A1F1B703072B01F2D385DFE813F09E0E4A
:104F2800D10DD10DD10D950ED10D6C0E630E00274C
:104F3800214618A827F074FA1CE4002716E4079BFA
:104F48001B78D9077FF5EEAC4FF40F702CF0DEFF1D
:104F580000283FF43BAD20F0D7F84FF40F702CF049
:104F680075FF0028F7D131E5414C236898077FF594
:104F780049ACE90741F10E822BB223F002039BB240
:104F8800AB42AAF800303FF46CAC3A4B41F2024114
:104F9800FF2219800E209A7020F088FDBAF8005080
:104FA8005FE48446FFF7C5BB94F86130002B41F0FD
:104FB800738594F8583183F0010384F85831002B35
:104FC80041F07B850C2020F071FD069BDFF8B8A02E
:104FD8001B6803F00403002B3FF455AB1C4C94F8FA
:104FE8005831A3B1079B1B78DE0710D5049BB3F992
:104FF8000620059B5B8B9A4209DD0021114827F0AA
:105008001EFA20B9322384F85801A4F8443011213B
:105018000C4827F014FA002800F02D8794F8603027
:105028002BB994F8613013B93223A4F84430012322
:1050380084F86030FFF727BBDFED0F7A48E500BF43
:10504800F43700201C2D0020943200202079002005
:10505800A0220020105100205D2D0020681E002095
:10506800BC2D002010630020185A00201C5A002074
:10507800F44100205C53002000000000A829002013
:1050880064230020B4320020403B0020059A528B54
:105098009342C0F29785B3F5FA6FD4BFC2EB030C05
:1050A800C2F5FA6C4FF47A73C2F5FA6203FB0CF39B
:1050B800B3FBF2F300283FF428AD4A78664903FBB6
:1050C80002F381FB0312DB17C3EB62131DE5B1FA90
:1050D80081F1490925F028F9FFF7D1BBB3F5FA6F3B
:1050E800127B9FED5E7ABFBF581A4243C1F5FA6141
:1050F80092FBF1F2C2F1640207EE902AF8EEE77A29
:10510800574A67EE877AC2ED007A7BE493F800800D
:10511800B8F1000F7FF466AC524B1B68002B3FF4CC
:1051280061AC514B514A13F8030C06931946DC1E27
:10513800957816F08FF9069B002800F02087002D3F
:1051480050D104F10801607916F084F9002841F083
:1051580031844749A07A16F07DF9002800F02187AC
:10516800022D41F00C844349E07B16F073F90028C6
:1051780041F00A844049207D16F06CF9002800F0BF
:105188002187042D41F029843C49607E16F062F99C
:10519800002841F01D843A49A07F16F05BF90028E9
:1051A80000F02187062D41F0E083364994F823006A
:1051B80016F050F9002841F0DD83334994F82800AF
:1051C80016F048F9002800F02187082D41F0E18306
:1051D8002E4994F82D0016F03DF900283FF402AC52
:1051E8004FF00908434603EB83031C441F48284B30
:1051F8006178A27880F8028019705A70FFF7F2BBC4
:1052080024F480739BB2A342AAF800307FF469AB00
:10521800FFF770BBBAF8002022F040039BB29A4215
:10522800AAF800303FF46EAB1A4B41F20241FF225C
:1052380019800E209A7020F039FCFFF763BB164BDB
:105248001978164B01F00101186825F06DF81BB0AC
:10525800BDEC068BBDE8F08F1F85EB510AD7233CC8
:10526800C4500020C03A0020F4490020000000206B
:10527800FE490020034A0020084A00200D4A002069
:10528800124A0020174A00201C4A0020214A002008
:10529800CA3A00205C5300203C6300204063002091
:1052A8001E46994B994A06931B68A2FB071242F2C5
:1052B800010C920913EA0C0C0E9240F09B85944A5B
:1052C80092F800E0BEF1000F04D0924A92F800E094
:1052D8008EF0010E904C4FF00F0A84F8E8A0002ED3
:1052E80000F09E8105998D4A10921078CA8C089218
:1052F8000A8B14928A4A04928A4AB1F824800F9041
:10530800A2FB0021490801EB4101411AC9B203F48B
:105318008053701E0C9115934B000E99DFF828925C
:1053280094F8E9B00D930328A8BF0320CDE91167CD
:1053380001F596727A4E1394CDF824A064460023A2
:105348008446079270460B9547468E46002800F023
:10535800FF80754A32F913201FFA82F8B8454FEAE0
:10536800430103D3089DA84540F2408159F8232002
:10537800964580F0F680725E002C40F00F81013374
:1053880063457252E2DD119E0B9DB342A446B846B6
:105398008646DDE912745EDA644A0B95580000EB24
:1053A800030A02EB4A0A48320D920E9A119402F54A
:1053B80096713546764607910E9764464746944659
:1053C8000499AE46C6B1584A125E1FFA82F847459C
:1053D80002D8089D454512D259F82320944580F0FB
:1053E80009810A5E84B9013373450A520AF1060A33
:1053F8002ED05800002EE6D1002FEDD13A46079D59
:1054080049F82350002CEED00C9D2AF81520BBF14A
:10541800000F02D10F9D022DE5D9BAF800B0BAF8F5
:105428000220BAF804805A449044414ADDF82CB06E
:105438000FFA88F882FB0852A2EBE8720D9D01333F
:1054480012B2734525F800800AF1060A0A52D0D133
:105458000B9D0E9F119C0999364B84F8E9B00F29D2
:105468000CBF0122002284F8E8101A7000F0DF80D7
:105478003148324C2749DFF8D4B008940122027031
:1054880004200A70FCF736F9DBF80030A16862687E
:10549800E3605B1A934202D9002384F82130284B39
:1054A8001878069B1A6802F48052002800F0DE8003
:1054B800059B1B4EB3F82480B3F818E02149002A55
:1054C80040F0A984134610E0022C40F0A7809CF815
:1054D800014004EB840404EB840404F2EE24013359
:1054E800984226F8024B00F0C18011F8134001EBF6
:1054F800430C002CE8D1DCB2022C40F24887032C84
:1055080040F08C804446EAE7606A0020D34D621080
:10551800C6370020F9010020A022002075310020A4
:10552800183B0020ABAAAAAA642300208C230020E1
:10553800565555555E2D0020F8010020F4370020FF
:1055480094320020E83200207831002010630020D7
:10555800002F49D059F8232096454FEA4301FFF41C
:105568000AAFA14D6A5C05EB0108002A00F0A2848D
:10557800022A40F04D8498F8012002EB820202EBE7
:10558800820202F2EE22012505FA03F8099D25EAB6
:10559800080512B20995002C3FF4F1AE934D01EBCA
:1055A800030A05EB4A080D9D28F80520BBF1000FFA
:1055B80003D10F9D022D7FF6E2AE8C4DB8F8042082
:1055C800B8F8028035F81AA0DDF82CB042449244AD
:1055D800874A0FFA8AFA82FB0A52864DA2EBEA72D0
:1055E80025F801A012B2CAE63A465900079D49F8C3
:1055F8002350C1E67C4D2A5C05EB0008002A00F028
:105608004C84022A40F0028498F8012002EB8202BE
:1056180002EB820202F2EE2212B2E3E634885EE77F
:10562800754B764A109201221A70754B04931B2110
:10563800744826F004FF00287FF41AAF7248DFF898
:10564800D8B1C168DBF80030069A83601268089008
:105658005B1AC82B02F4805208D96C490B6823F0F6
:1056680004030B60684B012083F8210010990B7824
:1056780001330B70FEF751BF12B9089A01239370DA
:10568800634B089A1C7892F8216007931B2015F049
:1056980019FF012E04F00108824600F0908604F0FC
:1056A8000204089A5B4F92F82030DFF86091099560
:1056B8009346052B01F25680DFE813F0660092004E
:1056C8000600D204BC049400012E04BF05238BF805
:1056D8002030B8F1000F11D0059B3888B3F91810A5
:1056E8000022134661F30F0361F30F0261F31F43B6
:1056F800049960F31F424A600B600324464DDBF8AF
:1057080014102A68914280F05D8647F230510322D6
:10571800CBF81C108BF820200220FBF7EBFF20F0C1
:10572800A9FD2968DBF81C200A440421CBF81820BD
:105738008BF82010012E41F042812A68DBF81810FE
:10574800914281F00F80354B187820B915F0BAFED8
:10575800002841F00780D9F8002022F00202C9F899
:1057680000202A687B88642101FB03234FF48060B2
:105778000022CBF810308BF820208BF80320FAF7A2
:1057880021FD9BF8203094E7B8F1000F01F0068165
:105798001BF030FB012800F05084BAF1000F03D051
:1057A800BB79002B40F05384012E00F0DB871A4DA3
:1057B800DBF810102A689142C0F0838601238BF829
:1057C8002030FB79012B40F0D48315F001FE032231
:1057D80040F6B8338BF82020CBF81C300E4D9BE7F1
:1057E800012EEED10C4DBCE7E83200208C230020BE
:1057F80056555555D42300205E2D002075310020C4
:10580800183B00201C2D0020F437002018380020F9
:10581800C43700205C4F002010630020681E002061
:10582800DFF830B3B84CDFF830830BF15A0559462E
:105838001BF8010C15F00EFEE8B19BF804109BF85C
:10584800023001EB410C04EB8C00013B426803EB96
:105858004303434493420ED094F8592143600123F3
:1058680003FA01F19BF8033004F82C3022EA010115
:10587800876084F859110BF1060BAB45D7D1A34BC0
:10588800A34A09931946A34BD2F800B009681B78BC
:105898009D4D0B910A934FF000085F466B68002BF3
:1058A80066D093F800B0BBF1000F61D0A968791AEF
:1058B80000290BDB94F85911012202FA08F021EAB9
:1058C800000107F5FA7084F85911A8600A9A002AAD
:1058D8004ED0297858780431C9B200283DD1059AAC
:1058E800108B049A32F911C094F8591100F1C80EBE
:1058F800F44500F33383C838844580F27D8641FA45
:1059080008F1CA079B7833D45B4201200C9320F03E
:105918000BF90BF1FF310C9B1B2900F2CC83DFE85C
:1059280011F0CE03A803F2047704E2043A04140445
:10593800EE03CF04BC04A904CA03770489043A041B
:105948001404EE034F0428040204990421050C05ED
:10595800CA03CE03DF03A803BC03012800F0CE85E9
:1059680094F85911012303FA08F30B4384F85931C9
:1059780008F10108B8F1040F05F10C058ED1FEF706
:1059880032BF654B03E005339E423EF425AF1978DC
:105998002329F8D19878DA789042F4D25F4826F033
:1059A8004EFD00283EF418AF5D4B1B68980300F1CC
:1059B80057875C4B00211A461078142802F10C0214
:1059C80000F0308601311829F6D1FEF705BF1D21F8
:1059D800524826F034FD002800F00485DFF87C8169
:1059E800059B5E8BA642CCBF00260126FEF7BFBDF5
:1059F8001D214A4826F023FD30B100F03DBD09F1D4
:105A08000509B1453FF4A7A899F800102629F6D151
:105A180099F8022099F803309A42F0D2089BDB7873
:105A2800002B7FF498A83D4826F009FDDFED3E7A6B
:105A38003E4A78EE677AFDEEE77A17EE903A1BB2A7
:105A48001B0382FB0312DB17C3EBA213002800F031
:105A58005986C5F57A7212B203FB02F343F30F338A
:105A68002B4407EE903A324BF8EEE77A0122C4ED68
:105A7800037A1A70FFF76FB8234CD4F84C31FB1A2D
:105A8800002BFEF658AD2B4A2B4B527CDFED2B7AC0
:105A980033F812309FED2A6A06EE903A059B9A7DFC
:105AA800D87D07EE102AF8EEE66AB8EEC77A66EEF9
:105AB800866A27EE277A0A9AC4F84C21C6EE877AB6
:105AC80040F2FF32FCEEE77A17EE903A9BB293422F
